{
  "_format": "hh-sol-artifact-1",
  "contractName": "DocumentVerification",
  "sourceName": "contracts/DocumentVerification.sol",
  "abi": [
    {
      "inputs": [],
      "stateMutability": "nonpayable",
      "type": "constructor"
    },
    {
      "anonymous": false,
      "inputs": [
        {
          "indexed": true,
          "internalType": "bytes32",
          "name": "documentHash",
          "type": "bytes32"
        },
        {
          "indexed": true,
          "internalType": "address",
          "name": "issuer",
          "type": "address"
        },
        {
          "indexed": false,
          "internalType": "string",
          "name": "recipientName",
          "type": "string"
        },
        {
          "indexed": false,
          "internalType": "string",
          "name": "documentType",
          "type": "string"
        },
        {
          "indexed": false,
          "internalType": "string",
          "name": "title",
          "type": "string"
        },
        {
          "indexed": false,
          "internalType": "uint256",
          "name": "issuanceDate",
          "type": "uint256"
        }
      ],
      "name": "DocumentIssued",
      "type": "event"
    },
    {
      "anonymous": false,
      "inputs": [
        {
          "indexed": true,
          "internalType": "bytes32",
          "name": "documentHash",
          "type": "bytes32"
        },
        {
          "indexed": true,
          "internalType": "address",
          "name": "issuer",
          "type": "address"
        },
        {
          "indexed": false,
          "internalType": "uint256",
          "name": "revocationDate",
          "type": "uint256"
        }
      ],
      "name": "DocumentRevoked",
      "type": "event"
    },
    {
      "anonymous": false,
      "inputs": [
        {
          "indexed": true,
          "internalType": "address",
          "name": "institutionAddress",
          "type": "address"
        },
        {
          "indexed": false,
          "internalType": "string",
          "name": "name",
          "type": "string"
        },
        {
          "indexed": false,
          "internalType": "uint256",
          "name": "registrationDate",
          "type": "uint256"
        }
      ],
      "name": "InstitutionRegistered",
      "type": "event"
    },
    {
      "anonymous": false,
      "inputs": [
        {
          "indexed": true,
          "internalType": "address",
          "name": "institutionAddress",
          "type": "address"
        },
        {
          "indexed": false,
          "internalType": "bool",
          "name": "verified",
          "type": "bool"
        }
      ],
      "name": "InstitutionVerified",
      "type": "event"
    },
    {
      "inputs": [
        {
          "internalType": "address",
          "name": "",
          "type": "address"
        }
      ],
      "name": "authorizedIssuers",
      "outputs": [
        {
          "internalType": "bool",
          "name": "",
          "type": "bool"
        }
      ],
      "stateMutability": "view",
      "type": "function"
    },
    {
      "inputs": [
        {
          "internalType": "uint256",
          "name": "",
          "type": "uint256"
        }
      ],
      "name": "documentHashes",
      "outputs": [
        {
          "internalType": "bytes32",
          "name": "",
          "type": "bytes32"
        }
      ],
      "stateMutability": "view",
      "type": "function"
    },
    {
      "inputs": [
        {
          "internalType": "bytes32",
          "name": "",
          "type": "bytes32"
        }
      ],
      "name": "documents",
      "outputs": [
        {
          "internalType": "bytes32",
          "name": "documentHash",
          "type": "bytes32"
        },
        {
          "internalType": "address",
          "name": "issuer",
          "type": "address"
        },
        {
          "internalType": "string",
          "name": "issuerName",
          "type": "string"
        },
        {
          "internalType": "string",
          "name": "documentType",
          "type": "string"
        },
        {
          "internalType": "string",
          "name": "title",
          "type": "string"
        },
        {
          "internalType": "string",
          "name": "recipientName",
          "type": "string"
        },
        {
          "internalType": "string",
          "name": "recipientId",
          "type": "string"
        },
        {
          "internalType": "uint256",
          "name": "issuanceDate",
          "type": "uint256"
        },
        {
          "internalType": "uint256",
          "name": "expirationDate",
          "type": "uint256"
        },
        {
          "internalType": "string",
          "name": "metadataURI",
          "type": "string"
        },
        {
          "internalType": "bool",
          "name": "isActive",
          "type": "bool"
        },
        {
          "internalType": "bytes",
          "name": "issuerSignature",
          "type": "bytes"
        }
      ],
      "stateMutability": "view",
      "type": "function"
    },
    {
      "inputs": [
        {
          "internalType": "bytes32",
          "name": "_documentHash",
          "type": "bytes32"
        }
      ],
      "name": "getDocumentMetadata",
      "outputs": [
        {
          "internalType": "string",
          "name": "",
          "type": "string"
        }
      ],
      "stateMutability": "view",
      "type": "function"
    },
    {
      "inputs": [
        {
          "internalType": "bytes32",
          "name": "_documentHash",
          "type": "bytes32"
        }
      ],
      "name": "getIssuerSignature",
      "outputs": [
        {
          "internalType": "bytes",
          "name": "",
          "type": "bytes"
        }
      ],
      "stateMutability": "view",
      "type": "function"
    },
    {
      "inputs": [],
      "name": "getTotalDocuments",
      "outputs": [
        {
          "internalType": "uint256",
          "name": "",
          "type": "uint256"
        }
      ],
      "stateMutability": "view",
      "type": "function"
    },
    {
      "inputs": [],
      "name": "getTotalInstitutions",
      "outputs": [
        {
          "internalType": "uint256",
          "name": "",
          "type": "uint256"
        }
      ],
      "stateMutability": "view",
      "type": "function"
    },
    {
      "inputs": [
        {
          "internalType": "uint256",
          "name": "",
          "type": "uint256"
        }
      ],
      "name": "institutionAddresses",
      "outputs": [
        {
          "internalType": "address",
          "name": "",
          "type": "address"
        }
      ],
      "stateMutability": "view",
      "type": "function"
    },
    {
      "inputs": [
        {
          "internalType": "address",
          "name": "",
          "type": "address"
        }
      ],
      "name": "institutions",
      "outputs": [
        {
          "internalType": "string",
          "name": "name",
          "type": "string"
        },
        {
          "internalType": "string",
          "name": "registrationNumber",
          "type": "string"
        },
        {
          "internalType": "string",
          "name": "contactInfo",
          "type": "string"
        },
        {
          "internalType": "bool",
          "name": "isVerified",
          "type": "bool"
        },
        {
          "internalType": "uint256",
          "name": "registrationDate",
          "type": "uint256"
        }
      ],
      "stateMutability": "view",
      "type": "function"
    },
    {
      "inputs": [
        {
          "internalType": "address",
          "name": "_institutionAddress",
          "type": "address"
        }
      ],
      "name": "isInstitutionVerified",
      "outputs": [
        {
          "internalType": "bool",
          "name": "",
          "type": "bool"
        }
      ],
      "stateMutability": "view",
      "type": "function"
    },
    {
      "inputs": [
        {
          "internalType": "bytes32",
          "name": "_documentHash",
          "type": "bytes32"
        },
        {
          "internalType": "string",
          "name": "_documentType",
          "type": "string"
        },
        {
          "internalType": "string",
          "name": "_title",
          "type": "string"
        },
        {
          "internalType": "string",
          "name": "_recipientName",
          "type": "string"
        },
        {
          "internalType": "string",
          "name": "_recipientId",
          "type": "string"
        },
        {
          "internalType": "uint256",
          "name": "_expirationDate",
          "type": "uint256"
        },
        {
          "internalType": "string",
          "name": "_metadataURI",
          "type": "string"
        },
        {
          "internalType": "bytes",
          "name": "_issuerSignature",
          "type": "bytes"
        }
      ],
      "name": "issueDocument",
      "outputs": [],
      "stateMutability": "nonpayable",
      "type": "function"
    },
    {
      "inputs": [],
      "name": "owner",
      "outputs": [
        {
          "internalType": "address",
          "name": "",
          "type": "address"
        }
      ],
      "stateMutability": "view",
      "type": "function"
    },
    {
      "inputs": [
        {
          "internalType": "string",
          "name": "_name",
          "type": "string"
        },
        {
          "internalType": "string",
          "name": "_registrationNumber",
          "type": "string"
        },
        {
          "internalType": "string",
          "name": "_contactInfo",
          "type": "string"
        }
      ],
      "name": "registerInstitution",
      "outputs": [],
      "stateMutability": "nonpayable",
      "type": "function"
    },
    {
      "inputs": [
        {
          "internalType": "bytes32",
          "name": "_documentHash",
          "type": "bytes32"
        }
      ],
      "name": "revokeDocument",
      "outputs": [],
      "stateMutability": "nonpayable",
      "type": "function"
    },
    {
      "inputs": [
        {
          "internalType": "bytes32",
          "name": "",
          "type": "bytes32"
        }
      ],
      "name": "revokedDocuments",
      "outputs": [
        {
          "internalType": "bool",
          "name": "",
          "type": "bool"
        }
      ],
      "stateMutability": "view",
      "type": "function"
    },
    {
      "inputs": [
        {
          "internalType": "bytes32",
          "name": "_documentHash",
          "type": "bytes32"
        }
      ],
      "name": "verifyDocument",
      "outputs": [
        {
          "internalType": "address",
          "name": "issuer",
          "type": "address"
        },
        {
          "internalType": "string",
          "name": "issuerName",
          "type": "string"
        },
        {
          "internalType": "string",
          "name": "documentType",
          "type": "string"
        },
        {
          "internalType": "string",
          "name": "title",
          "type": "string"
        },
        {
          "internalType": "string",
          "name": "recipientName",
          "type": "string"
        },
        {
          "internalType": "string",
          "name": "recipientId",
          "type": "string"
        },
        {
          "internalType": "uint256",
          "name": "issuanceDate",
          "type": "uint256"
        },
        {
          "internalType": "uint256",
          "name": "expirationDate",
          "type": "uint256"
        },
        {
          "internalType": "bool",
          "name": "isValidDoc",
          "type": "bool"
        },
        {
          "internalType": "bool",
          "name": "isActive",
          "type": "bool"
        }
      ],
      "stateMutability": "view",
      "type": "function"
    },
    {
      "inputs": [
        {
          "internalType": "address",
          "name": "_institutionAddress",
          "type": "address"
        }
      ],
      "name": "verifyInstitution",
      "outputs": [],
      "stateMutability": "nonpayable",
      "type": "function"
    }
  ],
  "bytecode": "0x608060405234801561001057600080fd5b50600680546001600160a01b03191633179055611f4e806100326000396000f3fe608060405234801561001057600080fd5b506004361061010b5760003560e01c80638e383c6b116100a2578063da3136ff11610071578063da3136ff1461024c578063e7732fc51461027f578063e90e7ad4146102ae578063f731fa0f146102b6578063fe35089f146102d957600080fd5b80638e383c6b146101ef578063952be80d14610202578063abf7d79614610215578063b2d9767f1461022857600080fd5b8063796942e2116100de578063796942e21461018b5780637f4168351461019e578063863d8091146101c95780638da5cb5b146101dc57600080fd5b80632b2805db146101105780633e168516146101445780633ee15d8f14610159578063594598be14610179575b600080fd5b61012361011e36600461189d565b610302565b60405161013b9c9b9a999897969594939291906118fc565b60405180910390f35b6101576101523660046119c8565b610726565b005b61016c61016736600461189d565b610871565b60405161013b91906119f8565b6005545b60405190815260200161013b565b610157610199366004611aae565b610950565b6101b16101ac36600461189d565b610d90565b6040516001600160a01b03909116815260200161013b565b61016c6101d736600461189d565b610dba565b6006546101b1906001600160a01b031681565b61017d6101fd36600461189d565b610e12565b61015761021036600461189d565b610e33565b610157610223366004611bb8565b610f9f565b61023b6102363660046119c8565b611168565b60405161013b959493929190611c40565b61026f61025a36600461189d565b60036020526000908152604090205460ff1681565b604051901515815260200161013b565b61026f61028d3660046119c8565b6001600160a01b031660009081526001602052604090206003015460ff1690565b60045461017d565b61026f6102c43660046119c8565b60026020526000908152604090205460ff1681565b6102ec6102e736600461189d565b611332565b60405161013b9a99989796959493929190611c8e565b60006020819052908152604090208054600182015460028301805492936001600160a01b039092169261033490611d31565b80601f016020809104026020016040519081016040528092919081815260200182805461036090611d31565b80156103ad5780601f10610382576101008083540402835291602001916103ad565b820191906000526020600020905b81548152906001019060200180831161039057829003601f168201915b5050505050908060030180546103c290611d31565b80601f01602080910402602001604051908101604052809291908181526020018280546103ee90611d31565b801561043b5780601f106104105761010080835404028352916020019161043b565b820191906000526020600020905b81548152906001019060200180831161041e57829003601f168201915b50505050509080600401805461045090611d31565b80601f016020809104026020016040519081016040528092919081815260200182805461047c90611d31565b80156104c95780601f1061049e576101008083540402835291602001916104c9565b820191906000526020600020905b8154815290600101906020018083116104ac57829003601f168201915b5050505050908060050180546104de90611d31565b80601f016020809104026020016040519081016040528092919081815260200182805461050a90611d31565b80156105575780601f1061052c57610100808354040283529160200191610557565b820191906000526020600020905b81548152906001019060200180831161053a57829003601f168201915b50505050509080600601805461056c90611d31565b80601f016020809104026020016040519081016040528092919081815260200182805461059890611d31565b80156105e55780601f106105ba576101008083540402835291602001916105e5565b820191906000526020600020905b8154815290600101906020018083116105c857829003601f168201915b50505050509080600701549080600801549080600901805461060690611d31565b80601f016020809104026020016040519081016040528092919081815260200182805461063290611d31565b801561067f5780601f106106545761010080835404028352916020019161067f565b820191906000526020600020905b81548152906001019060200180831161066257829003601f168201915b505050600a840154600b85018054949560ff9092169491935091506106a390611d31565b80601f01602080910402602001604051908101604052809291908181526020018280546106cf90611d31565b801561071c5780601f106106f15761010080835404028352916020019161071c565b820191906000526020600020905b8154815290600101906020018083116106ff57829003601f168201915b505050505090508c565b6006546001600160a01b031633146107995760405162461bcd60e51b815260206004820152602b60248201527f4f6e6c7920636f6e7472616374206f776e65722063616e20706572666f726d2060448201526a3a3434b99030b1ba34b7b760a91b60648201526084015b60405180910390fd5b6001600160a01b0381166000908152600160205260409020600401546108015760405162461bcd60e51b815260206004820152601a60248201527f496e737469747574696f6e206e6f7420726567697374657265640000000000006044820152606401610790565b6001600160a01b0381166000818152600160208181526040808420600301805460ff19908116851790915560028352938190208054909416831790935591519081527fc4fcedd564ae1cf0414bc7056387d4dd4437057d44911cb5b28cca79537184b1910160405180910390a250565b60008181526020819052604090206001015460609082906001600160a01b03166108ad5760405162461bcd60e51b815260040161079090611d65565b6000838152602081905260409020600b0180546108c990611d31565b80601f01602080910402602001604051908101604052809291908181526020018280546108f590611d31565b80156109425780601f1061091757610100808354040283529160200191610942565b820191906000526020600020905b81548152906001019060200180831161092557829003601f168201915b505050505091505b50919050565b3360009081526002602052604090205460ff166109c75760405162461bcd60e51b815260206004820152602f60248201527f4f6e6c7920617574686f72697a656420697373756572732063616e207065726660448201526e37b936903a3434b99030b1ba34b7b760891b6064820152608401610790565b87610a145760405162461bcd60e51b815260206004820152601d60248201527f446f63756d656e7420686173682063616e6e6f7420626520656d7074790000006044820152606401610790565b6000888152602081905260409020600101546001600160a01b031615610a7c5760405162461bcd60e51b815260206004820152601760248201527f446f63756d656e7420616c7265616479206578697374730000000000000000006044820152606401610790565b6000875111610acd5760405162461bcd60e51b815260206004820152601d60248201527f446f63756d656e7420747970652063616e6e6f7420626520656d7074790000006044820152606401610790565b6000855111610b1e5760405162461bcd60e51b815260206004820152601e60248201527f526563697069656e74206e616d652063616e6e6f7420626520656d70747900006044820152606401610790565b604080516101808101825289815233602080830182905260009182526001905282902080549192830191610b5190611d31565b80601f0160208091040260200160405190810160405280929190818152602001828054610b7d90611d31565b8015610bca5780601f10610b9f57610100808354040283529160200191610bca565b820191906000526020600020905b815481529060010190602001808311610bad57829003601f168201915b505050918352505060208082018a905260408083018a905260608301899052608083018890524260a084015260c0830187905260e083018690526001610100840181905261012090930185905260008c8152808352819020845181559184015192820180546001600160a01b0319166001600160a01b0390941693909317909255908201516002820190610c5e9082611deb565b5060608201516003820190610c739082611deb565b5060808201516004820190610c889082611deb565b5060a08201516005820190610c9d9082611deb565b5060c08201516006820190610cb29082611deb565b5060e0820151600782015561010082015160088201556101208201516009820190610cdd9082611deb565b50610140820151600a8201805460ff1916911515919091179055610160820151600b820190610d0c9082611deb565b5050600480546001810182556000919091527f8a35acfbc15ff81a39ae7d344fd709f28e8600b4aa8c65c6b64bfe7fe36bd19b0189905550604051339089907f42bb6686917f82a7804776b7ed4565cbd2d0656cb9d23548e9ffad84ad11d2be90610d7e9089908c908c904290611eab565b60405180910390a35050505050505050565b60058181548110610da057600080fd5b6000918252602090912001546001600160a01b0316905081565b60008181526020819052604090206001015460609082906001600160a01b0316610df65760405162461bcd60e51b815260040161079090611d65565b600083815260208190526040902060090180546108c990611d31565b60048181548110610e2257600080fd5b600091825260209091200154905081565b60008181526020819052604090206001015481906001600160a01b0316610e6c5760405162461bcd60e51b815260040161079090611d65565b600082815260208190526040902060018101546001600160a01b03163314610ed65760405162461bcd60e51b815260206004820152601f60248201527f4f6e6c79206973737565722063616e207265766f6b6520646f63756d656e74006044820152606401610790565b60008381526003602052604090205460ff1615610f355760405162461bcd60e51b815260206004820152601860248201527f446f63756d656e7420616c7265616479207265766f6b656400000000000000006044820152606401610790565b60008381526003602052604090819020805460ff19908116600117909155600a83018054909116905551339084907f58dab06ff4a881de7cd15a590640a447aec068b61e18a8b9b4ae28a8984fe3d690610f929042815260200190565b60405180910390a3505050565b6000835111610ff05760405162461bcd60e51b815260206004820181905260248201527f496e737469747574696f6e206e616d652063616e6e6f7420626520656d7074796044820152606401610790565b33600090815260016020526040902060040154156110505760405162461bcd60e51b815260206004820152601e60248201527f496e737469747574696f6e20616c7265616479207265676973746572656400006044820152606401610790565b6040805160a0810182528481526020808201859052818301849052600060608301819052426080840152338152600190915291909120815181906110949082611deb565b50602082015160018201906110a99082611deb565b50604082015160028201906110be9082611deb565b50606082015160038201805460ff1916911515919091179055608090910151600490910155600580546001810182556000919091527f036b6384b5eca791c62761152d0c79bb0604c104a5fb6f4eb0703f3154bb3db0018054336001600160a01b031990911681179091556040517f7c0f5cc09780e7fbbb9700dc48f49cdadcdf5d8c8a674b8a8725af30071dc82f9061115b9086904290611ef6565b60405180910390a2505050565b60016020526000908152604090208054819061118390611d31565b80601f01602080910402602001604051908101604052809291908181526020018280546111af90611d31565b80156111fc5780601f106111d1576101008083540402835291602001916111fc565b820191906000526020600020905b8154815290600101906020018083116111df57829003601f168201915b50505050509080600101805461121190611d31565b80601f016020809104026020016040519081016040528092919081815260200182805461123d90611d31565b801561128a5780601f1061125f5761010080835404028352916020019161128a565b820191906000526020600020905b81548152906001019060200180831161126d57829003601f168201915b50505050509080600201805461129f90611d31565b80601f01602080910402602001604051908101604052809291908181526020018280546112cb90611d31565b80156113185780601f106112ed57610100808354040283529160200191611318565b820191906000526020600020905b8154815290600101906020018083116112fb57829003601f168201915b505050506003830154600490930154919260ff1691905085565b600081815260208190526040812060010154606090819081908190819086908190819081908b906001600160a01b031661137e5760405162461bcd60e51b815260040161079090611d65565b60008c8152602081815260408083208151610180810183528154815260018201546001600160a01b03169381019390935260028101805491928401916113c390611d31565b80601f01602080910402602001604051908101604052809291908181526020018280546113ef90611d31565b801561143c5780601f106114115761010080835404028352916020019161143c565b820191906000526020600020905b81548152906001019060200180831161141f57829003601f168201915b5050505050815260200160038201805461145590611d31565b80601f016020809104026020016040519081016040528092919081815260200182805461148190611d31565b80156114ce5780601f106114a3576101008083540402835291602001916114ce565b820191906000526020600020905b8154815290600101906020018083116114b157829003601f168201915b505050505081526020016004820180546114e790611d31565b80601f016020809104026020016040519081016040528092919081815260200182805461151390611d31565b80156115605780601f1061153557610100808354040283529160200191611560565b820191906000526020600020905b81548152906001019060200180831161154357829003601f168201915b5050505050815260200160058201805461157990611d31565b80601f01602080910402602001604051908101604052809291908181526020018280546115a590611d31565b80156115f25780601f106115c7576101008083540402835291602001916115f2565b820191906000526020600020905b8154815290600101906020018083116115d557829003601f168201915b5050505050815260200160068201805461160b90611d31565b80601f016020809104026020016040519081016040528092919081815260200182805461163790611d31565b80156116845780601f1061165957610100808354040283529160200191611684565b820191906000526020600020905b81548152906001019060200180831161166757829003601f168201915b5050505050815260200160078201548152602001600882015481526020016009820180546116b190611d31565b80601f01602080910402602001604051908101604052809291908181526020018280546116dd90611d31565b801561172a5780601f106116ff5761010080835404028352916020019161172a565b820191906000526020600020905b81548152906001019060200180831161170d57829003601f168201915b5050509183525050600a82015460ff1615156020820152600b8201805460409092019161175690611d31565b80601f016020809104026020016040519081016040528092919081815260200182805461178290611d31565b80156117cf5780601f106117a4576101008083540402835291602001916117cf565b820191906000526020600020905b8154815290600101906020018083116117b257829003601f168201915b5050509190925250505060008e8152600360205260408120549192509060ff161580156117fe57508161014001515b801561181b5750610100820151158061181b575042826101000151115b801561184757506020808301516001600160a01b031660009081526001909152604090206003015460ff165b905081602001518260400151836060015184608001518560a001518660c001518760e00151886101000151888a61014001519c509c509c509c509c509c509c509c509c509c505050509193959799509193959799565b6000602082840312156118af57600080fd5b5035919050565b6000815180845260005b818110156118dc576020818501810151868301820152016118c0565b506000602082860101526020601f19601f83011685010191505092915050565b8c81526001600160a01b038c16602082015260006101808060408401526119258184018e6118b6565b90508281036060840152611939818d6118b6565b9050828103608084015261194d818c6118b6565b905082810360a0840152611961818b6118b6565b905082810360c0840152611975818a6118b6565b90508760e08401528661010084015282810361012084015261199781876118b6565b85151561014085015290508281036101608401526119b581856118b6565b9f9e505050505050505050505050505050565b6000602082840312156119da57600080fd5b81356001600160a01b03811681146119f157600080fd5b9392505050565b6020815260006119f160208301846118b6565b634e487b7160e01b600052604160045260246000fd5b600082601f830112611a3257600080fd5b813567ffffffffffffffff80821115611a4d57611a4d611a0b565b604051601f8301601f19908116603f01168101908282118183101715611a7557611a75611a0b565b81604052838152866020858801011115611a8e57600080fd5b836020870160208301376000602085830101528094505050505092915050565b600080600080600080600080610100898b031215611acb57600080fd5b88359750602089013567ffffffffffffffff80821115611aea57600080fd5b611af68c838d01611a21565b985060408b0135915080821115611b0c57600080fd5b611b188c838d01611a21565b975060608b0135915080821115611b2e57600080fd5b611b3a8c838d01611a21565b965060808b0135915080821115611b5057600080fd5b611b5c8c838d01611a21565b955060a08b0135945060c08b0135915080821115611b7957600080fd5b611b858c838d01611a21565b935060e08b0135915080821115611b9b57600080fd5b50611ba88b828c01611a21565b9150509295985092959890939650565b600080600060608486031215611bcd57600080fd5b833567ffffffffffffffff80821115611be557600080fd5b611bf187838801611a21565b94506020860135915080821115611c0757600080fd5b611c1387838801611a21565b93506040860135915080821115611c2957600080fd5b50611c3686828701611a21565b9150509250925092565b60a081526000611c5360a08301886118b6565b8281036020840152611c6581886118b6565b90508281036040840152611c7981876118b6565b94151560608401525050608001529392505050565b6001600160a01b038b16815261014060208201819052600090611cb38382018d6118b6565b90508281036040840152611cc7818c6118b6565b90508281036060840152611cdb818b6118b6565b90508281036080840152611cef818a6118b6565b905082810360a0840152611d0381896118b6565b60c0840197909752505060e08101939093529015156101008301521515610120909101529695505050505050565b600181811c90821680611d4557607f821691505b60208210810361094a57634e487b7160e01b600052602260045260246000fd5b60208082526017908201527f446f63756d656e7420646f6573206e6f74206578697374000000000000000000604082015260600190565b601f821115611de657600081815260208120601f850160051c81016020861015611dc35750805b601f850160051c820191505b81811015611de257828155600101611dcf565b5050505b505050565b815167ffffffffffffffff811115611e0557611e05611a0b565b611e1981611e138454611d31565b84611d9c565b602080601f831160018114611e4e5760008415611e365750858301515b600019600386901b1c1916600185901b178555611de2565b600085815260208120601f198616915b82811015611e7d57888601518255948401946001909101908401611e5e565b5085821015611e9b5787850151600019600388901b60f8161c191681555b5050505050600190811b01905550565b608081526000611ebe60808301876118b6565b8281036020840152611ed081876118b6565b90508281036040840152611ee481866118b6565b91505082606083015295945050505050565b604081526000611f0960408301856118b6565b9050826020830152939250505056fea2646970667358221220953df60b13beb2c3e5bce7543dd66ea56fbfbb9c1013791646c30967d740fadd64736f6c63430008130033",
  "linkReferences": {},
  "deployedLinkReferences": {}
}