{
  "_format": "hh-sol-artifact-1",
  "contractName": "DocumentVerification",
  "sourceName": "contracts/DocumentVerification.sol",
  "abi": [
    {
      "inputs": [],
      "stateMutability": "nonpayable",
      "type": "constructor"
    },
    {
      "anonymous": false,
      "inputs": [
        {
          "indexed": true,
          "internalType": "bytes32",
          "name": "documentHash",
          "type": "bytes32"
        },
        {
          "indexed": true,
          "internalType": "address",
          "name": "issuer",
          "type": "address"
        },
        {
          "indexed": false,
          "internalType": "string",
          "name": "recipientName",
          "type": "string"
        },
        {
          "indexed": false,
          "internalType": "string",
          "name": "documentType",
          "type": "string"
        },
        {
          "indexed": false,
          "internalType": "uint256",
          "name": "issuanceDate",
          "type": "uint256"
        }
      ],
      "name": "DocumentIssued",
      "type": "event"
    },
    {
      "anonymous": false,
      "inputs": [
        {
          "indexed": true,
          "internalType": "bytes32",
          "name": "documentHash",
          "type": "bytes32"
        },
        {
          "indexed": true,
          "internalType": "address",
          "name": "issuer",
          "type": "address"
        },
        {
          "indexed": false,
          "internalType": "uint256",
          "name": "revocationDate",
          "type": "uint256"
        }
      ],
      "name": "DocumentRevoked",
      "type": "event"
    },
    {
      "anonymous": false,
      "inputs": [
        {
          "indexed": true,
          "internalType": "address",
          "name": "institutionAddress",
          "type": "address"
        },
        {
          "indexed": false,
          "internalType": "string",
          "name": "name",
          "type": "string"
        },
        {
          "indexed": false,
          "internalType": "uint256",
          "name": "registrationDate",
          "type": "uint256"
        }
      ],
      "name": "InstitutionRegistered",
      "type": "event"
    },
    {
      "anonymous": false,
      "inputs": [
        {
          "indexed": true,
          "internalType": "address",
          "name": "institutionAddress",
          "type": "address"
        },
        {
          "indexed": false,
          "internalType": "bool",
          "name": "verified",
          "type": "bool"
        }
      ],
      "name": "InstitutionVerified",
      "type": "event"
    },
    {
      "inputs": [
        {
          "internalType": "address",
          "name": "",
          "type": "address"
        }
      ],
      "name": "authorizedIssuers",
      "outputs": [
        {
          "internalType": "bool",
          "name": "",
          "type": "bool"
        }
      ],
      "stateMutability": "view",
      "type": "function"
    },
    {
      "inputs": [
        {
          "internalType": "uint256",
          "name": "",
          "type": "uint256"
        }
      ],
      "name": "documentHashes",
      "outputs": [
        {
          "internalType": "bytes32",
          "name": "",
          "type": "bytes32"
        }
      ],
      "stateMutability": "view",
      "type": "function"
    },
    {
      "inputs": [
        {
          "internalType": "bytes32",
          "name": "",
          "type": "bytes32"
        }
      ],
      "name": "documents",
      "outputs": [
        {
          "internalType": "bytes32",
          "name": "documentHash",
          "type": "bytes32"
        },
        {
          "internalType": "address",
          "name": "issuer",
          "type": "address"
        },
        {
          "internalType": "string",
          "name": "issuerName",
          "type": "string"
        },
        {
          "internalType": "string",
          "name": "documentType",
          "type": "string"
        },
        {
          "internalType": "string",
          "name": "recipientName",
          "type": "string"
        },
        {
          "internalType": "string",
          "name": "recipientId",
          "type": "string"
        },
        {
          "internalType": "uint256",
          "name": "issuanceDate",
          "type": "uint256"
        },
        {
          "internalType": "uint256",
          "name": "expirationDate",
          "type": "uint256"
        },
        {
          "internalType": "string",
          "name": "metadataURI",
          "type": "string"
        },
        {
          "internalType": "bool",
          "name": "isActive",
          "type": "bool"
        },
        {
          "internalType": "bytes",
          "name": "issuerSignature",
          "type": "bytes"
        }
      ],
      "stateMutability": "view",
      "type": "function"
    },
    {
      "inputs": [
        {
          "internalType": "bytes32",
          "name": "_documentHash",
          "type": "bytes32"
        }
      ],
      "name": "getDocumentMetadata",
      "outputs": [
        {
          "internalType": "string",
          "name": "",
          "type": "string"
        }
      ],
      "stateMutability": "view",
      "type": "function"
    },
    {
      "inputs": [
        {
          "internalType": "bytes32",
          "name": "_documentHash",
          "type": "bytes32"
        }
      ],
      "name": "getIssuerSignature",
      "outputs": [
        {
          "internalType": "bytes",
          "name": "",
          "type": "bytes"
        }
      ],
      "stateMutability": "view",
      "type": "function"
    },
    {
      "inputs": [],
      "name": "getTotalDocuments",
      "outputs": [
        {
          "internalType": "uint256",
          "name": "",
          "type": "uint256"
        }
      ],
      "stateMutability": "view",
      "type": "function"
    },
    {
      "inputs": [],
      "name": "getTotalInstitutions",
      "outputs": [
        {
          "internalType": "uint256",
          "name": "",
          "type": "uint256"
        }
      ],
      "stateMutability": "view",
      "type": "function"
    },
    {
      "inputs": [
        {
          "internalType": "uint256",
          "name": "",
          "type": "uint256"
        }
      ],
      "name": "institutionAddresses",
      "outputs": [
        {
          "internalType": "address",
          "name": "",
          "type": "address"
        }
      ],
      "stateMutability": "view",
      "type": "function"
    },
    {
      "inputs": [
        {
          "internalType": "address",
          "name": "",
          "type": "address"
        }
      ],
      "name": "institutions",
      "outputs": [
        {
          "internalType": "string",
          "name": "name",
          "type": "string"
        },
        {
          "internalType": "string",
          "name": "registrationNumber",
          "type": "string"
        },
        {
          "internalType": "string",
          "name": "contactInfo",
          "type": "string"
        },
        {
          "internalType": "bool",
          "name": "isVerified",
          "type": "bool"
        },
        {
          "internalType": "uint256",
          "name": "registrationDate",
          "type": "uint256"
        }
      ],
      "stateMutability": "view",
      "type": "function"
    },
    {
      "inputs": [
        {
          "internalType": "address",
          "name": "_institutionAddress",
          "type": "address"
        }
      ],
      "name": "isInstitutionVerified",
      "outputs": [
        {
          "internalType": "bool",
          "name": "",
          "type": "bool"
        }
      ],
      "stateMutability": "view",
      "type": "function"
    },
    {
      "inputs": [
        {
          "internalType": "bytes32",
          "name": "_documentHash",
          "type": "bytes32"
        },
        {
          "internalType": "string",
          "name": "_documentType",
          "type": "string"
        },
        {
          "internalType": "string",
          "name": "_recipientName",
          "type": "string"
        },
        {
          "internalType": "string",
          "name": "_recipientId",
          "type": "string"
        },
        {
          "internalType": "uint256",
          "name": "_expirationDate",
          "type": "uint256"
        },
        {
          "internalType": "string",
          "name": "_metadataURI",
          "type": "string"
        },
        {
          "internalType": "bytes",
          "name": "_issuerSignature",
          "type": "bytes"
        }
      ],
      "name": "issueDocument",
      "outputs": [],
      "stateMutability": "nonpayable",
      "type": "function"
    },
    {
      "inputs": [],
      "name": "owner",
      "outputs": [
        {
          "internalType": "address",
          "name": "",
          "type": "address"
        }
      ],
      "stateMutability": "view",
      "type": "function"
    },
    {
      "inputs": [
        {
          "internalType": "string",
          "name": "_name",
          "type": "string"
        },
        {
          "internalType": "string",
          "name": "_registrationNumber",
          "type": "string"
        },
        {
          "internalType": "string",
          "name": "_contactInfo",
          "type": "string"
        }
      ],
      "name": "registerInstitution",
      "outputs": [],
      "stateMutability": "nonpayable",
      "type": "function"
    },
    {
      "inputs": [
        {
          "internalType": "bytes32",
          "name": "_documentHash",
          "type": "bytes32"
        }
      ],
      "name": "revokeDocument",
      "outputs": [],
      "stateMutability": "nonpayable",
      "type": "function"
    },
    {
      "inputs": [
        {
          "internalType": "bytes32",
          "name": "",
          "type": "bytes32"
        }
      ],
      "name": "revokedDocuments",
      "outputs": [
        {
          "internalType": "bool",
          "name": "",
          "type": "bool"
        }
      ],
      "stateMutability": "view",
      "type": "function"
    },
    {
      "inputs": [
        {
          "internalType": "bytes32",
          "name": "_documentHash",
          "type": "bytes32"
        }
      ],
      "name": "verifyDocument",
      "outputs": [
        {
          "internalType": "address",
          "name": "issuer",
          "type": "address"
        },
        {
          "internalType": "string",
          "name": "issuerName",
          "type": "string"
        },
        {
          "internalType": "string",
          "name": "documentType",
          "type": "string"
        },
        {
          "internalType": "string",
          "name": "recipientName",
          "type": "string"
        },
        {
          "internalType": "string",
          "name": "recipientId",
          "type": "string"
        },
        {
          "internalType": "uint256",
          "name": "issuanceDate",
          "type": "uint256"
        },
        {
          "internalType": "uint256",
          "name": "expirationDate",
          "type": "uint256"
        },
        {
          "internalType": "bool",
          "name": "isValidDoc",
          "type": "bool"
        },
        {
          "internalType": "bool",
          "name": "isActive",
          "type": "bool"
        }
      ],
      "stateMutability": "view",
      "type": "function"
    },
    {
      "inputs": [
        {
          "internalType": "address",
          "name": "_institutionAddress",
          "type": "address"
        }
      ],
      "name": "verifyInstitution",
      "outputs": [],
      "stateMutability": "nonpayable",
      "type": "function"
    }
  ],
  "bytecode": "0x608060405234801561001057600080fd5b50600680546001600160a01b03191633179055611d9b806100326000396000f3fe608060405234801561001057600080fd5b506004361061010b5760003560e01c8063952be80d116100a2578063e7732fc511610071578063e7732fc51461026b578063e90e7ad41461029a578063f731fa0f146102a2578063fe35089f146102c5578063fee3d9d7146102ed57600080fd5b8063952be80d146101ee578063abf7d79614610201578063b2d9767f14610214578063da3136ff1461023857600080fd5b80637f416835116100de5780637f4168351461018a578063863d8091146101b55780638da5cb5b146101c85780638e383c6b146101db57600080fd5b80632b2805db146101105780633e168516146101435780633ee15d8f14610158578063594598be14610178575b600080fd5b61012361011e36600461174e565b610300565b60405161013a9b9a999897969594939291906117ad565b60405180910390f35b610156610151366004611865565b610696565b005b61016b61016636600461174e565b6107e1565b60405161013a9190611895565b6005545b60405190815260200161013a565b61019d61019836600461174e565b6108c0565b6040516001600160a01b03909116815260200161013a565b61016b6101c336600461174e565b6108ea565b60065461019d906001600160a01b031681565b61017c6101e936600461174e565b610942565b6101566101fc36600461174e565b610963565b61015661020f36600461194b565b610acf565b610227610222366004611865565b610c98565b60405161013a9594939291906119d3565b61025b61024636600461174e565b60036020526000908152604090205460ff1681565b604051901515815260200161013a565b61025b610279366004611865565b6001600160a01b031660009081526001602052604090206003015460ff1690565b60045461017c565b61025b6102b0366004611865565b60026020526000908152604090205460ff1681565b6102d86102d336600461174e565b610e62565b60405161013a99989796959493929190611a21565b6101566102fb366004611aae565b61132f565b60006020819052908152604090208054600182015460028301805492936001600160a01b039092169261033290611b93565b80601f016020809104026020016040519081016040528092919081815260200182805461035e90611b93565b80156103ab5780601f10610380576101008083540402835291602001916103ab565b820191906000526020600020905b81548152906001019060200180831161038e57829003601f168201915b5050505050908060030180546103c090611b93565b80601f01602080910402602001604051908101604052809291908181526020018280546103ec90611b93565b80156104395780601f1061040e57610100808354040283529160200191610439565b820191906000526020600020905b81548152906001019060200180831161041c57829003601f168201915b50505050509080600401805461044e90611b93565b80601f016020809104026020016040519081016040528092919081815260200182805461047a90611b93565b80156104c75780601f1061049c576101008083540402835291602001916104c7565b820191906000526020600020905b8154815290600101906020018083116104aa57829003601f168201915b5050505050908060050180546104dc90611b93565b80601f016020809104026020016040519081016040528092919081815260200182805461050890611b93565b80156105555780601f1061052a57610100808354040283529160200191610555565b820191906000526020600020905b81548152906001019060200180831161053857829003601f168201915b50505050509080600601549080600701549080600801805461057690611b93565b80601f01602080910402602001604051908101604052809291908181526020018280546105a290611b93565b80156105ef5780601f106105c4576101008083540402835291602001916105ef565b820191906000526020600020905b8154815290600101906020018083116105d257829003601f168201915b5050506009840154600a85018054949560ff90921694919350915061061390611b93565b80601f016020809104026020016040519081016040528092919081815260200182805461063f90611b93565b801561068c5780601f106106615761010080835404028352916020019161068c565b820191906000526020600020905b81548152906001019060200180831161066f57829003601f168201915b505050505090508b565b6006546001600160a01b031633146107095760405162461bcd60e51b815260206004820152602b60248201527f4f6e6c7920636f6e7472616374206f776e65722063616e20706572666f726d2060448201526a3a3434b99030b1ba34b7b760a91b60648201526084015b60405180910390fd5b6001600160a01b0381166000908152600160205260409020600401546107715760405162461bcd60e51b815260206004820152601a60248201527f496e737469747574696f6e206e6f7420726567697374657265640000000000006044820152606401610700565b6001600160a01b0381166000818152600160208181526040808420600301805460ff19908116851790915560028352938190208054909416831790935591519081527fc4fcedd564ae1cf0414bc7056387d4dd4437057d44911cb5b28cca79537184b1910160405180910390a250565b60008181526020819052604090206001015460609082906001600160a01b031661081d5760405162461bcd60e51b815260040161070090611bc7565b6000838152602081905260409020600a01805461083990611b93565b80601f016020809104026020016040519081016040528092919081815260200182805461086590611b93565b80156108b25780601f10610887576101008083540402835291602001916108b2565b820191906000526020600020905b81548152906001019060200180831161089557829003601f168201915b505050505091505b50919050565b600581815481106108d057600080fd5b6000918252602090912001546001600160a01b0316905081565b60008181526020819052604090206001015460609082906001600160a01b03166109265760405162461bcd60e51b815260040161070090611bc7565b6000838152602081905260409020600801805461083990611b93565b6004818154811061095257600080fd5b600091825260209091200154905081565b60008181526020819052604090206001015481906001600160a01b031661099c5760405162461bcd60e51b815260040161070090611bc7565b600082815260208190526040902060018101546001600160a01b03163314610a065760405162461bcd60e51b815260206004820152601f60248201527f4f6e6c79206973737565722063616e207265766f6b6520646f63756d656e74006044820152606401610700565b60008381526003602052604090205460ff1615610a655760405162461bcd60e51b815260206004820152601860248201527f446f63756d656e7420616c7265616479207265766f6b656400000000000000006044820152606401610700565b60008381526003602052604090819020805460ff19908116600117909155600983018054909116905551339084907f58dab06ff4a881de7cd15a590640a447aec068b61e18a8b9b4ae28a8984fe3d690610ac29042815260200190565b60405180910390a3505050565b6000835111610b205760405162461bcd60e51b815260206004820181905260248201527f496e737469747574696f6e206e616d652063616e6e6f7420626520656d7074796044820152606401610700565b3360009081526001602052604090206004015415610b805760405162461bcd60e51b815260206004820152601e60248201527f496e737469747574696f6e20616c7265616479207265676973746572656400006044820152606401610700565b6040805160a081018252848152602080820185905281830184905260006060830181905242608084015233815260019091529190912081518190610bc49082611c4d565b5060208201516001820190610bd99082611c4d565b5060408201516002820190610bee9082611c4d565b50606082015160038201805460ff1916911515919091179055608090910151600490910155600580546001810182556000919091527f036b6384b5eca791c62761152d0c79bb0604c104a5fb6f4eb0703f3154bb3db0018054336001600160a01b031990911681179091556040517f7c0f5cc09780e7fbbb9700dc48f49cdadcdf5d8c8a674b8a8725af30071dc82f90610c8b9086904290611d0d565b60405180910390a2505050565b600160205260009081526040902080548190610cb390611b93565b80601f0160208091040260200160405190810160405280929190818152602001828054610cdf90611b93565b8015610d2c5780601f10610d0157610100808354040283529160200191610d2c565b820191906000526020600020905b815481529060010190602001808311610d0f57829003601f168201915b505050505090806001018054610d4190611b93565b80601f0160208091040260200160405190810160405280929190818152602001828054610d6d90611b93565b8015610dba5780601f10610d8f57610100808354040283529160200191610dba565b820191906000526020600020905b815481529060010190602001808311610d9d57829003601f168201915b505050505090806002018054610dcf90611b93565b80601f0160208091040260200160405190810160405280929190818152602001828054610dfb90611b93565b8015610e485780601f10610e1d57610100808354040283529160200191610e48565b820191906000526020600020905b815481529060010190602001808311610e2b57829003601f168201915b505050506003830154600490930154919260ff1691905085565b60008181526020819052604081206001015460609081908190819085908190819081908a906001600160a01b0316610eac5760405162461bcd60e51b815260040161070090611bc7565b60008b8152602081815260408083208151610160810183528154815260018201546001600160a01b0316938101939093526002810180549192840191610ef190611b93565b80601f0160208091040260200160405190810160405280929190818152602001828054610f1d90611b93565b8015610f6a5780601f10610f3f57610100808354040283529160200191610f6a565b820191906000526020600020905b815481529060010190602001808311610f4d57829003601f168201915b50505050508152602001600382018054610f8390611b93565b80601f0160208091040260200160405190810160405280929190818152602001828054610faf90611b93565b8015610ffc5780601f10610fd157610100808354040283529160200191610ffc565b820191906000526020600020905b815481529060010190602001808311610fdf57829003601f168201915b5050505050815260200160048201805461101590611b93565b80601f016020809104026020016040519081016040528092919081815260200182805461104190611b93565b801561108e5780601f106110635761010080835404028352916020019161108e565b820191906000526020600020905b81548152906001019060200180831161107157829003601f168201915b505050505081526020016005820180546110a790611b93565b80601f01602080910402602001604051908101604052809291908181526020018280546110d390611b93565b80156111205780601f106110f557610100808354040283529160200191611120565b820191906000526020600020905b81548152906001019060200180831161110357829003601f168201915b50505050508152602001600682015481526020016007820154815260200160088201805461114d90611b93565b80601f016020809104026020016040519081016040528092919081815260200182805461117990611b93565b80156111c65780601f1061119b576101008083540402835291602001916111c6565b820191906000526020600020905b8154815290600101906020018083116111a957829003601f168201915b5050509183525050600982015460ff1615156020820152600a820180546040909201916111f290611b93565b80601f016020809104026020016040519081016040528092919081815260200182805461121e90611b93565b801561126b5780601f106112405761010080835404028352916020019161126b565b820191906000526020600020905b81548152906001019060200180831161124e57829003601f168201915b5050509190925250505060008d8152600360205260408120549192509060ff1615801561129a57508161012001515b80156112b5575060e082015115806112b55750428260e00151115b80156112e157506020808301516001600160a01b031660009081526001909152604090206003015460ff165b905081602001518260400151836060015184608001518560a001518660c001518760e00151878961012001519b509b509b509b509b509b509b509b509b505050509193959799909294969850565b3360009081526002602052604090205460ff166113a65760405162461bcd60e51b815260206004820152602f60248201527f4f6e6c7920617574686f72697a656420697373756572732063616e207065726660448201526e37b936903a3434b99030b1ba34b7b760891b6064820152608401610700565b866113f35760405162461bcd60e51b815260206004820152601d60248201527f446f63756d656e7420686173682063616e6e6f7420626520656d7074790000006044820152606401610700565b6000878152602081905260409020600101546001600160a01b03161561145b5760405162461bcd60e51b815260206004820152601760248201527f446f63756d656e7420616c7265616479206578697374730000000000000000006044820152606401610700565b60008651116114ac5760405162461bcd60e51b815260206004820152601d60248201527f446f63756d656e7420747970652063616e6e6f7420626520656d7074790000006044820152606401610700565b60008551116114fd5760405162461bcd60e51b815260206004820152601e60248201527f526563697069656e74206e616d652063616e6e6f7420626520656d70747900006044820152606401610700565b60408051610160810182528881523360208083018290526000918252600190528290208054919283019161153090611b93565b80601f016020809104026020016040519081016040528092919081815260200182805461155c90611b93565b80156115a95780601f1061157e576101008083540402835291602001916115a9565b820191906000526020600020905b81548152906001019060200180831161158c57829003601f168201915b5050509183525050602080820189905260408083018990526060830188905242608084015260a0830187905260c08301869052600160e0840181905261010090930185905260008b8152808352819020845181559184015192820180546001600160a01b0319166001600160a01b03909416939093179092559082015160028201906116359082611c4d565b506060820151600382019061164a9082611c4d565b506080820151600482019061165f9082611c4d565b5060a082015160058201906116749082611c4d565b5060c0820151600682015560e08201516007820155610100820151600882019061169e9082611c4d565b5061012082015160098201805460ff1916911515919091179055610140820151600a8201906116cd9082611c4d565b5050600480546001810182556000919091527f8a35acfbc15ff81a39ae7d344fd709f28e8600b4aa8c65c6b64bfe7fe36bd19b0188905550604051339088907fcde0a6052b87b9a389762e7ca4162d0596373baa4a9fbc48eec8131a77d4add49061173d9089908b904290611d2f565b60405180910390a350505050505050565b60006020828403121561176057600080fd5b5035919050565b6000815180845260005b8181101561178d57602081850181015186830182015201611771565b506000602082860101526020601f19601f83011685010191505092915050565b8b81526001600160a01b038b166020820152610160604082018190526000906117d88382018d611767565b905082810360608401526117ec818c611767565b90508281036080840152611800818b611767565b905082810360a0840152611814818a611767565b90508760c08401528660e08401528281036101008401526118358187611767565b85151561012085015290508281036101408401526118538185611767565b9e9d5050505050505050505050505050565b60006020828403121561187757600080fd5b81356001600160a01b038116811461188e57600080fd5b9392505050565b60208152600061188e6020830184611767565b634e487b7160e01b600052604160045260246000fd5b600082601f8301126118cf57600080fd5b813567ffffffffffffffff808211156118ea576118ea6118a8565b604051601f8301601f19908116603f01168101908282118183101715611912576119126118a8565b8160405283815286602085880101111561192b57600080fd5b836020870160208301376000602085830101528094505050505092915050565b60008060006060848603121561196057600080fd5b833567ffffffffffffffff8082111561197857600080fd5b611984878388016118be565b9450602086013591508082111561199a57600080fd5b6119a6878388016118be565b935060408601359150808211156119bc57600080fd5b506119c9868287016118be565b9150509250925092565b60a0815260006119e660a0830188611767565b82810360208401526119f88188611767565b90508281036040840152611a0c8187611767565b94151560608401525050608001529392505050565b6001600160a01b038a16815261012060208201819052600090611a468382018c611767565b90508281036040840152611a5a818b611767565b90508281036060840152611a6e818a611767565b90508281036080840152611a828189611767565b60a0840197909752505060c081019390935290151560e083015215156101009091015295945050505050565b600080600080600080600060e0888a031215611ac957600080fd5b87359650602088013567ffffffffffffffff80821115611ae857600080fd5b611af48b838c016118be565b975060408a0135915080821115611b0a57600080fd5b611b168b838c016118be565b965060608a0135915080821115611b2c57600080fd5b611b388b838c016118be565b955060808a0135945060a08a0135915080821115611b5557600080fd5b611b618b838c016118be565b935060c08a0135915080821115611b7757600080fd5b50611b848a828b016118be565b91505092959891949750929550565b600181811c90821680611ba757607f821691505b6020821081036108ba57634e487b7160e01b600052602260045260246000fd5b60208082526017908201527f446f63756d656e7420646f6573206e6f74206578697374000000000000000000604082015260600190565b601f821115611c4857600081815260208120601f850160051c81016020861015611c255750805b601f850160051c820191505b81811015611c4457828155600101611c31565b5050505b505050565b815167ffffffffffffffff811115611c6757611c676118a8565b611c7b81611c758454611b93565b84611bfe565b602080601f831160018114611cb05760008415611c985750858301515b600019600386901b1c1916600185901b178555611c44565b600085815260208120601f198616915b82811015611cdf57888601518255948401946001909101908401611cc0565b5085821015611cfd5787850151600019600388901b60f8161c191681555b5050505050600190811b01905550565b604081526000611d206040830185611767565b90508260208301529392505050565b606081526000611d426060830186611767565b8281036020840152611d548186611767565b91505082604083015294935050505056fea2646970667358221220f1b879a0e081f210f0f54b3bcc3d3d9c23abf5dfaf1a6b6f16c589acde45598d64736f6c63430008130033",
  "linkReferences": {},
  "deployedLinkReferences": {}
}