{
  "_format": "hh-sol-artifact-1",
  "contractName": "DocumentVerification",
  "sourceName": "contracts/DocumentVerification.sol",
  "abi": [
    {
      "inputs": [],
      "stateMutability": "nonpayable",
      "type": "constructor"
    },
    {
      "anonymous": false,
      "inputs": [
        {
          "indexed": true,
          "internalType": "bytes32",
          "name": "documentHash",
          "type": "bytes32"
        },
        {
          "indexed": true,
          "internalType": "address",
          "name": "issuer",
          "type": "address"
        },
        {
          "indexed": false,
          "internalType": "string",
          "name": "recipientName",
          "type": "string"
        },
        {
          "indexed": false,
          "internalType": "string",
          "name": "documentType",
          "type": "string"
        },
        {
          "indexed": false,
          "internalType": "string",
          "name": "title",
          "type": "string"
        },
        {
          "indexed": false,
          "internalType": "uint256",
          "name": "issuanceDate",
          "type": "uint256"
        }
      ],
      "name": "DocumentIssued",
      "type": "event"
    },
    {
      "anonymous": false,
      "inputs": [
        {
          "indexed": true,
          "internalType": "bytes32",
          "name": "documentHash",
          "type": "bytes32"
        },
        {
          "indexed": true,
          "internalType": "address",
          "name": "issuer",
          "type": "address"
        },
        {
          "indexed": false,
          "internalType": "uint256",
          "name": "revocationDate",
          "type": "uint256"
        }
      ],
      "name": "DocumentRevoked",
      "type": "event"
    },
    {
      "anonymous": false,
      "inputs": [
        {
          "indexed": true,
          "internalType": "address",
          "name": "institutionAddress",
          "type": "address"
        },
        {
          "indexed": false,
          "internalType": "string",
          "name": "name",
          "type": "string"
        },
        {
          "indexed": false,
          "internalType": "uint256",
          "name": "registrationDate",
          "type": "uint256"
        }
      ],
      "name": "InstitutionRegistered",
      "type": "event"
    },
    {
      "anonymous": false,
      "inputs": [
        {
          "indexed": true,
          "internalType": "address",
          "name": "institutionAddress",
          "type": "address"
        },
        {
          "indexed": false,
          "internalType": "string",
          "name": "name",
          "type": "string"
        }
      ],
      "name": "InstitutionUpdated",
      "type": "event"
    },
    {
      "anonymous": false,
      "inputs": [
        {
          "indexed": true,
          "internalType": "address",
          "name": "institutionAddress",
          "type": "address"
        },
        {
          "indexed": false,
          "internalType": "bool",
          "name": "verified",
          "type": "bool"
        }
      ],
      "name": "InstitutionVerified",
      "type": "event"
    },
    {
      "inputs": [
        {
          "internalType": "address",
          "name": "",
          "type": "address"
        }
      ],
      "name": "authorizedIssuers",
      "outputs": [
        {
          "internalType": "bool",
          "name": "",
          "type": "bool"
        }
      ],
      "stateMutability": "view",
      "type": "function"
    },
    {
      "inputs": [
        {
          "internalType": "uint256",
          "name": "",
          "type": "uint256"
        }
      ],
      "name": "documentHashes",
      "outputs": [
        {
          "internalType": "bytes32",
          "name": "",
          "type": "bytes32"
        }
      ],
      "stateMutability": "view",
      "type": "function"
    },
    {
      "inputs": [
        {
          "internalType": "bytes32",
          "name": "",
          "type": "bytes32"
        }
      ],
      "name": "documents",
      "outputs": [
        {
          "internalType": "bytes32",
          "name": "documentHash",
          "type": "bytes32"
        },
        {
          "internalType": "address",
          "name": "issuer",
          "type": "address"
        },
        {
          "internalType": "string",
          "name": "issuerName",
          "type": "string"
        },
        {
          "internalType": "string",
          "name": "documentType",
          "type": "string"
        },
        {
          "internalType": "string",
          "name": "title",
          "type": "string"
        },
        {
          "internalType": "string",
          "name": "recipientName",
          "type": "string"
        },
        {
          "internalType": "string",
          "name": "recipientId",
          "type": "string"
        },
        {
          "internalType": "uint256",
          "name": "issuanceDate",
          "type": "uint256"
        },
        {
          "internalType": "uint256",
          "name": "expirationDate",
          "type": "uint256"
        },
        {
          "internalType": "string",
          "name": "metadataURI",
          "type": "string"
        },
        {
          "internalType": "bool",
          "name": "isActive",
          "type": "bool"
        },
        {
          "internalType": "bytes",
          "name": "issuerSignature",
          "type": "bytes"
        }
      ],
      "stateMutability": "view",
      "type": "function"
    },
    {
      "inputs": [
        {
          "internalType": "bytes32",
          "name": "_documentHash",
          "type": "bytes32"
        }
      ],
      "name": "getDocumentMetadata",
      "outputs": [
        {
          "internalType": "string",
          "name": "",
          "type": "string"
        }
      ],
      "stateMutability": "view",
      "type": "function"
    },
    {
      "inputs": [
        {
          "internalType": "bytes32",
          "name": "_documentHash",
          "type": "bytes32"
        }
      ],
      "name": "getIssuerSignature",
      "outputs": [
        {
          "internalType": "bytes",
          "name": "",
          "type": "bytes"
        }
      ],
      "stateMutability": "view",
      "type": "function"
    },
    {
      "inputs": [],
      "name": "getTotalDocuments",
      "outputs": [
        {
          "internalType": "uint256",
          "name": "",
          "type": "uint256"
        }
      ],
      "stateMutability": "view",
      "type": "function"
    },
    {
      "inputs": [],
      "name": "getTotalInstitutions",
      "outputs": [
        {
          "internalType": "uint256",
          "name": "",
          "type": "uint256"
        }
      ],
      "stateMutability": "view",
      "type": "function"
    },
    {
      "inputs": [
        {
          "internalType": "uint256",
          "name": "",
          "type": "uint256"
        }
      ],
      "name": "institutionAddresses",
      "outputs": [
        {
          "internalType": "address",
          "name": "",
          "type": "address"
        }
      ],
      "stateMutability": "view",
      "type": "function"
    },
    {
      "inputs": [
        {
          "internalType": "address",
          "name": "",
          "type": "address"
        }
      ],
      "name": "institutions",
      "outputs": [
        {
          "internalType": "string",
          "name": "name",
          "type": "string"
        },
        {
          "internalType": "string",
          "name": "registrationNumber",
          "type": "string"
        },
        {
          "internalType": "string",
          "name": "contactInfo",
          "type": "string"
        },
        {
          "internalType": "bool",
          "name": "isVerified",
          "type": "bool"
        },
        {
          "internalType": "uint256",
          "name": "registrationDate",
          "type": "uint256"
        }
      ],
      "stateMutability": "view",
      "type": "function"
    },
    {
      "inputs": [
        {
          "internalType": "address",
          "name": "_institutionAddress",
          "type": "address"
        }
      ],
      "name": "isInstitutionVerified",
      "outputs": [
        {
          "internalType": "bool",
          "name": "",
          "type": "bool"
        }
      ],
      "stateMutability": "view",
      "type": "function"
    },
    {
      "inputs": [
        {
          "internalType": "bytes32",
          "name": "_documentHash",
          "type": "bytes32"
        },
        {
          "internalType": "string",
          "name": "_documentType",
          "type": "string"
        },
        {
          "internalType": "string",
          "name": "_title",
          "type": "string"
        },
        {
          "internalType": "string",
          "name": "_recipientName",
          "type": "string"
        },
        {
          "internalType": "string",
          "name": "_recipientId",
          "type": "string"
        },
        {
          "internalType": "uint256",
          "name": "_expirationDate",
          "type": "uint256"
        },
        {
          "internalType": "string",
          "name": "_metadataURI",
          "type": "string"
        },
        {
          "internalType": "bytes",
          "name": "_issuerSignature",
          "type": "bytes"
        }
      ],
      "name": "issueDocument",
      "outputs": [],
      "stateMutability": "nonpayable",
      "type": "function"
    },
    {
      "inputs": [],
      "name": "owner",
      "outputs": [
        {
          "internalType": "address",
          "name": "",
          "type": "address"
        }
      ],
      "stateMutability": "view",
      "type": "function"
    },
    {
      "inputs": [
        {
          "internalType": "string",
          "name": "_name",
          "type": "string"
        },
        {
          "internalType": "string",
          "name": "_registrationNumber",
          "type": "string"
        },
        {
          "internalType": "string",
          "name": "_contactInfo",
          "type": "string"
        }
      ],
      "name": "registerInstitution",
      "outputs": [],
      "stateMutability": "nonpayable",
      "type": "function"
    },
    {
      "inputs": [
        {
          "internalType": "bytes32",
          "name": "_documentHash",
          "type": "bytes32"
        }
      ],
      "name": "revokeDocument",
      "outputs": [],
      "stateMutability": "nonpayable",
      "type": "function"
    },
    {
      "inputs": [
        {
          "internalType": "bytes32",
          "name": "",
          "type": "bytes32"
        }
      ],
      "name": "revokedDocuments",
      "outputs": [
        {
          "internalType": "bool",
          "name": "",
          "type": "bool"
        }
      ],
      "stateMutability": "view",
      "type": "function"
    },
    {
      "inputs": [
        {
          "internalType": "string",
          "name": "_name",
          "type": "string"
        },
        {
          "internalType": "string",
          "name": "_registrationNumber",
          "type": "string"
        },
        {
          "internalType": "string",
          "name": "_contactInfo",
          "type": "string"
        }
      ],
      "name": "updateInstitution",
      "outputs": [],
      "stateMutability": "nonpayable",
      "type": "function"
    },
    {
      "inputs": [
        {
          "internalType": "bytes32",
          "name": "_documentHash",
          "type": "bytes32"
        }
      ],
      "name": "verifyDocument",
      "outputs": [
        {
          "internalType": "address",
          "name": "issuer",
          "type": "address"
        },
        {
          "internalType": "string",
          "name": "issuerName",
          "type": "string"
        },
        {
          "internalType": "string",
          "name": "documentType",
          "type": "string"
        },
        {
          "internalType": "string",
          "name": "title",
          "type": "string"
        },
        {
          "internalType": "string",
          "name": "recipientName",
          "type": "string"
        },
        {
          "internalType": "string",
          "name": "recipientId",
          "type": "string"
        },
        {
          "internalType": "uint256",
          "name": "issuanceDate",
          "type": "uint256"
        },
        {
          "internalType": "uint256",
          "name": "expirationDate",
          "type": "uint256"
        },
        {
          "internalType": "bool",
          "name": "isValidDoc",
          "type": "bool"
        },
        {
          "internalType": "bool",
          "name": "isActive",
          "type": "bool"
        }
      ],
      "stateMutability": "view",
      "type": "function"
    },
    {
      "inputs": [
        {
          "internalType": "address",
          "name": "_institutionAddress",
          "type": "address"
        }
      ],
      "name": "verifyInstitution",
      "outputs": [],
      "stateMutability": "nonpayable",
      "type": "function"
    }
  ],
  "bytecode": "0x608060405234801561001057600080fd5b50600680546001600160a01b031916331790556120aa806100326000396000f3fe608060405234801561001057600080fd5b50600436106101165760003560e01c80638e383c6b116100a2578063da3136ff11610071578063da3136ff1461026a578063e7732fc51461029d578063e90e7ad4146102cc578063f731fa0f146102d4578063fe35089f146102f757600080fd5b80638e383c6b1461020d578063952be80d14610220578063abf7d79614610233578063b2d9767f1461024657600080fd5b8063594598be116100e9578063594598be14610197578063796942e2146101a95780637f416835146101bc578063863d8091146101e75780638da5cb5b146101fa57600080fd5b80632b2805db1461011b5780633e1685161461014f5780633ee15d8f146101645780633f1e8f9314610184575b600080fd5b61012e6101293660046119f9565b610320565b6040516101469c9b9a99989796959493929190611a58565b60405180910390f35b61016261015d366004611b24565b610744565b005b6101776101723660046119f9565b61088f565b6040516101469190611b54565b610162610192366004611c0a565b61096e565b6005545b604051908152602001610146565b6101626101b7366004611c92565b610ab9565b6101cf6101ca3660046119f9565b610ef9565b6040516001600160a01b039091168152602001610146565b6101776101f53660046119f9565b610f23565b6006546101cf906001600160a01b031681565b61019b61021b3660046119f9565b610f7b565b61016261022e3660046119f9565b610f9c565b610162610241366004611c0a565b611108565b610259610254366004611b24565b6112c4565b604051610146959493929190611d9c565b61028d6102783660046119f9565b60036020526000908152604090205460ff1681565b6040519015158152602001610146565b61028d6102ab366004611b24565b6001600160a01b031660009081526001602052604090206003015460ff1690565b60045461019b565b61028d6102e2366004611b24565b60026020526000908152604090205460ff1681565b61030a6103053660046119f9565b61148e565b6040516101469a99989796959493929190611dea565b60006020819052908152604090208054600182015460028301805492936001600160a01b039092169261035290611e8d565b80601f016020809104026020016040519081016040528092919081815260200182805461037e90611e8d565b80156103cb5780601f106103a0576101008083540402835291602001916103cb565b820191906000526020600020905b8154815290600101906020018083116103ae57829003601f168201915b5050505050908060030180546103e090611e8d565b80601f016020809104026020016040519081016040528092919081815260200182805461040c90611e8d565b80156104595780601f1061042e57610100808354040283529160200191610459565b820191906000526020600020905b81548152906001019060200180831161043c57829003601f168201915b50505050509080600401805461046e90611e8d565b80601f016020809104026020016040519081016040528092919081815260200182805461049a90611e8d565b80156104e75780601f106104bc576101008083540402835291602001916104e7565b820191906000526020600020905b8154815290600101906020018083116104ca57829003601f168201915b5050505050908060050180546104fc90611e8d565b80601f016020809104026020016040519081016040528092919081815260200182805461052890611e8d565b80156105755780601f1061054a57610100808354040283529160200191610575565b820191906000526020600020905b81548152906001019060200180831161055857829003601f168201915b50505050509080600601805461058a90611e8d565b80601f01602080910402602001604051908101604052809291908181526020018280546105b690611e8d565b80156106035780601f106105d857610100808354040283529160200191610603565b820191906000526020600020905b8154815290600101906020018083116105e657829003601f168201915b50505050509080600701549080600801549080600901805461062490611e8d565b80601f016020809104026020016040519081016040528092919081815260200182805461065090611e8d565b801561069d5780601f106106725761010080835404028352916020019161069d565b820191906000526020600020905b81548152906001019060200180831161068057829003601f168201915b505050600a840154600b85018054949560ff9092169491935091506106c190611e8d565b80601f01602080910402602001604051908101604052809291908181526020018280546106ed90611e8d565b801561073a5780601f1061070f5761010080835404028352916020019161073a565b820191906000526020600020905b81548152906001019060200180831161071d57829003601f168201915b505050505090508c565b6006546001600160a01b031633146107b75760405162461bcd60e51b815260206004820152602b60248201527f4f6e6c7920636f6e7472616374206f776e65722063616e20706572666f726d2060448201526a3a3434b99030b1ba34b7b760a91b60648201526084015b60405180910390fd5b6001600160a01b03811660009081526001602052604090206004015461081f5760405162461bcd60e51b815260206004820152601a60248201527f496e737469747574696f6e206e6f74207265676973746572656400000000000060448201526064016107ae565b6001600160a01b0381166000818152600160208181526040808420600301805460ff19908116851790915560028352938190208054909416831790935591519081527fc4fcedd564ae1cf0414bc7056387d4dd4437057d44911cb5b28cca79537184b1910160405180910390a250565b60008181526020819052604090206001015460609082906001600160a01b03166108cb5760405162461bcd60e51b81526004016107ae90611ec1565b6000838152602081905260409020600b0180546108e790611e8d565b80601f016020809104026020016040519081016040528092919081815260200182805461091390611e8d565b80156109605780601f1061093557610100808354040283529160200191610960565b820191906000526020600020905b81548152906001019060200180831161094357829003601f168201915b505050505091505b50919050565b336000908152600160205260409020600401546109cd5760405162461bcd60e51b815260206004820152601a60248201527f496e737469747574696f6e206e6f74207265676973746572656400000000000060448201526064016107ae565b6000835111610a1e5760405162461bcd60e51b815260206004820181905260248201527f496e737469747574696f6e206e616d652063616e6e6f7420626520656d70747960448201526064016107ae565b336000908152600160205260409020610a378482611f47565b5033600090815260016020819052604090912001610a558382611f47565b50336000908152600160205260409020600201610a728282611f47565b50336001600160a01b03167fe33ace03e1dc84681a64d5b886ef9d9d3c12c93261ee8878b981081bee97a48184604051610aac9190611b54565b60405180910390a2505050565b3360009081526002602052604090205460ff16610b305760405162461bcd60e51b815260206004820152602f60248201527f4f6e6c7920617574686f72697a656420697373756572732063616e207065726660448201526e37b936903a3434b99030b1ba34b7b760891b60648201526084016107ae565b87610b7d5760405162461bcd60e51b815260206004820152601d60248201527f446f63756d656e7420686173682063616e6e6f7420626520656d70747900000060448201526064016107ae565b6000888152602081905260409020600101546001600160a01b031615610be55760405162461bcd60e51b815260206004820152601760248201527f446f63756d656e7420616c72656164792065786973747300000000000000000060448201526064016107ae565b6000875111610c365760405162461bcd60e51b815260206004820152601d60248201527f446f63756d656e7420747970652063616e6e6f7420626520656d70747900000060448201526064016107ae565b6000855111610c875760405162461bcd60e51b815260206004820152601e60248201527f526563697069656e74206e616d652063616e6e6f7420626520656d707479000060448201526064016107ae565b604080516101808101825289815233602080830182905260009182526001905282902080549192830191610cba90611e8d565b80601f0160208091040260200160405190810160405280929190818152602001828054610ce690611e8d565b8015610d335780601f10610d0857610100808354040283529160200191610d33565b820191906000526020600020905b815481529060010190602001808311610d1657829003601f168201915b505050918352505060208082018a905260408083018a905260608301899052608083018890524260a084015260c0830187905260e083018690526001610100840181905261012090930185905260008c8152808352819020845181559184015192820180546001600160a01b0319166001600160a01b0390941693909317909255908201516002820190610dc79082611f47565b5060608201516003820190610ddc9082611f47565b5060808201516004820190610df19082611f47565b5060a08201516005820190610e069082611f47565b5060c08201516006820190610e1b9082611f47565b5060e0820151600782015561010082015160088201556101208201516009820190610e469082611f47565b50610140820151600a8201805460ff1916911515919091179055610160820151600b820190610e759082611f47565b5050600480546001810182556000919091527f8a35acfbc15ff81a39ae7d344fd709f28e8600b4aa8c65c6b64bfe7fe36bd19b0189905550604051339089907f42bb6686917f82a7804776b7ed4565cbd2d0656cb9d23548e9ffad84ad11d2be90610ee79089908c908c904290612007565b60405180910390a35050505050505050565b60058181548110610f0957600080fd5b6000918252602090912001546001600160a01b0316905081565b60008181526020819052604090206001015460609082906001600160a01b0316610f5f5760405162461bcd60e51b81526004016107ae90611ec1565b600083815260208190526040902060090180546108e790611e8d565b60048181548110610f8b57600080fd5b600091825260209091200154905081565b60008181526020819052604090206001015481906001600160a01b0316610fd55760405162461bcd60e51b81526004016107ae90611ec1565b600082815260208190526040902060018101546001600160a01b0316331461103f5760405162461bcd60e51b815260206004820152601f60248201527f4f6e6c79206973737565722063616e207265766f6b6520646f63756d656e740060448201526064016107ae565b60008381526003602052604090205460ff161561109e5760405162461bcd60e51b815260206004820152601860248201527f446f63756d656e7420616c7265616479207265766f6b6564000000000000000060448201526064016107ae565b60008381526003602052604090819020805460ff19908116600117909155600a83018054909116905551339084907f58dab06ff4a881de7cd15a590640a447aec068b61e18a8b9b4ae28a8984fe3d6906110fb9042815260200190565b60405180910390a3505050565b60008351116111595760405162461bcd60e51b815260206004820181905260248201527f496e737469747574696f6e206e616d652063616e6e6f7420626520656d70747960448201526064016107ae565b33600090815260016020526040902060040154156111b95760405162461bcd60e51b815260206004820152601e60248201527f496e737469747574696f6e20616c72656164792072656769737465726564000060448201526064016107ae565b6040805160a0810182528481526020808201859052818301849052600060608301819052426080840152338152600190915291909120815181906111fd9082611f47565b50602082015160018201906112129082611f47565b50604082015160028201906112279082611f47565b50606082015160038201805460ff1916911515919091179055608090910151600490910155600580546001810182556000919091527f036b6384b5eca791c62761152d0c79bb0604c104a5fb6f4eb0703f3154bb3db0018054336001600160a01b031990911681179091556040517f7c0f5cc09780e7fbbb9700dc48f49cdadcdf5d8c8a674b8a8725af30071dc82f90610aac9086904290612052565b6001602052600090815260409020805481906112df90611e8d565b80601f016020809104026020016040519081016040528092919081815260200182805461130b90611e8d565b80156113585780601f1061132d57610100808354040283529160200191611358565b820191906000526020600020905b81548152906001019060200180831161133b57829003601f168201915b50505050509080600101805461136d90611e8d565b80601f016020809104026020016040519081016040528092919081815260200182805461139990611e8d565b80156113e65780601f106113bb576101008083540402835291602001916113e6565b820191906000526020600020905b8154815290600101906020018083116113c957829003601f168201915b5050505050908060020180546113fb90611e8d565b80601f016020809104026020016040519081016040528092919081815260200182805461142790611e8d565b80156114745780601f1061144957610100808354040283529160200191611474565b820191906000526020600020905b81548152906001019060200180831161145757829003601f168201915b505050506003830154600490930154919260ff1691905085565b600081815260208190526040812060010154606090819081908190819086908190819081908b906001600160a01b03166114da5760405162461bcd60e51b81526004016107ae90611ec1565b60008c8152602081815260408083208151610180810183528154815260018201546001600160a01b031693810193909352600281018054919284019161151f90611e8d565b80601f016020809104026020016040519081016040528092919081815260200182805461154b90611e8d565b80156115985780601f1061156d57610100808354040283529160200191611598565b820191906000526020600020905b81548152906001019060200180831161157b57829003601f168201915b505050505081526020016003820180546115b190611e8d565b80601f01602080910402602001604051908101604052809291908181526020018280546115dd90611e8d565b801561162a5780601f106115ff5761010080835404028352916020019161162a565b820191906000526020600020905b81548152906001019060200180831161160d57829003601f168201915b5050505050815260200160048201805461164390611e8d565b80601f016020809104026020016040519081016040528092919081815260200182805461166f90611e8d565b80156116bc5780601f10611691576101008083540402835291602001916116bc565b820191906000526020600020905b81548152906001019060200180831161169f57829003601f168201915b505050505081526020016005820180546116d590611e8d565b80601f016020809104026020016040519081016040528092919081815260200182805461170190611e8d565b801561174e5780601f106117235761010080835404028352916020019161174e565b820191906000526020600020905b81548152906001019060200180831161173157829003601f168201915b5050505050815260200160068201805461176790611e8d565b80601f016020809104026020016040519081016040528092919081815260200182805461179390611e8d565b80156117e05780601f106117b5576101008083540402835291602001916117e0565b820191906000526020600020905b8154815290600101906020018083116117c357829003601f168201915b50505050508152602001600782015481526020016008820154815260200160098201805461180d90611e8d565b80601f016020809104026020016040519081016040528092919081815260200182805461183990611e8d565b80156118865780601f1061185b57610100808354040283529160200191611886565b820191906000526020600020905b81548152906001019060200180831161186957829003601f168201915b5050509183525050600a82015460ff1615156020820152600b820180546040909201916118b290611e8d565b80601f01602080910402602001604051908101604052809291908181526020018280546118de90611e8d565b801561192b5780601f106119005761010080835404028352916020019161192b565b820191906000526020600020905b81548152906001019060200180831161190e57829003601f168201915b5050509190925250505060008e8152600360205260408120549192509060ff1615801561195a57508161014001515b801561197757506101008201511580611977575042826101000151115b80156119a357506020808301516001600160a01b031660009081526001909152604090206003015460ff165b905081602001518260400151836060015184608001518560a001518660c001518760e00151886101000151888a61014001519c509c509c509c509c509c509c509c509c509c505050509193959799509193959799565b600060208284031215611a0b57600080fd5b5035919050565b6000815180845260005b81811015611a3857602081850181015186830182015201611a1c565b506000602082860101526020601f19601f83011685010191505092915050565b8c81526001600160a01b038c1660208201526000610180806040840152611a818184018e611a12565b90508281036060840152611a95818d611a12565b90508281036080840152611aa9818c611a12565b905082810360a0840152611abd818b611a12565b905082810360c0840152611ad1818a611a12565b90508760e084015286610100840152828103610120840152611af38187611a12565b8515156101408501529050828103610160840152611b118185611a12565b9f9e505050505050505050505050505050565b600060208284031215611b3657600080fd5b81356001600160a01b0381168114611b4d57600080fd5b9392505050565b602081526000611b4d6020830184611a12565b634e487b7160e01b600052604160045260246000fd5b600082601f830112611b8e57600080fd5b813567ffffffffffffffff80821115611ba957611ba9611b67565b604051601f8301601f19908116603f01168101908282118183101715611bd157611bd1611b67565b81604052838152866020858801011115611bea57600080fd5b836020870160208301376000602085830101528094505050505092915050565b600080600060608486031215611c1f57600080fd5b833567ffffffffffffffff80821115611c3757600080fd5b611c4387838801611b7d565b94506020860135915080821115611c5957600080fd5b611c6587838801611b7d565b93506040860135915080821115611c7b57600080fd5b50611c8886828701611b7d565b9150509250925092565b600080600080600080600080610100898b031215611caf57600080fd5b88359750602089013567ffffffffffffffff80821115611cce57600080fd5b611cda8c838d01611b7d565b985060408b0135915080821115611cf057600080fd5b611cfc8c838d01611b7d565b975060608b0135915080821115611d1257600080fd5b611d1e8c838d01611b7d565b965060808b0135915080821115611d3457600080fd5b611d408c838d01611b7d565b955060a08b0135945060c08b0135915080821115611d5d57600080fd5b611d698c838d01611b7d565b935060e08b0135915080821115611d7f57600080fd5b50611d8c8b828c01611b7d565b9150509295985092959890939650565b60a081526000611daf60a0830188611a12565b8281036020840152611dc18188611a12565b90508281036040840152611dd58187611a12565b94151560608401525050608001529392505050565b6001600160a01b038b16815261014060208201819052600090611e0f8382018d611a12565b90508281036040840152611e23818c611a12565b90508281036060840152611e37818b611a12565b90508281036080840152611e4b818a611a12565b905082810360a0840152611e5f8189611a12565b60c0840197909752505060e08101939093529015156101008301521515610120909101529695505050505050565b600181811c90821680611ea157607f821691505b60208210810361096857634e487b7160e01b600052602260045260246000fd5b60208082526017908201527f446f63756d656e7420646f6573206e6f74206578697374000000000000000000604082015260600190565b601f821115611f4257600081815260208120601f850160051c81016020861015611f1f5750805b601f850160051c820191505b81811015611f3e57828155600101611f2b565b5050505b505050565b815167ffffffffffffffff811115611f6157611f61611b67565b611f7581611f6f8454611e8d565b84611ef8565b602080601f831160018114611faa5760008415611f925750858301515b600019600386901b1c1916600185901b178555611f3e565b600085815260208120601f198616915b82811015611fd957888601518255948401946001909101908401611fba565b5085821015611ff75787850151600019600388901b60f8161c191681555b5050505050600190811b01905550565b60808152600061201a6080830187611a12565b828103602084015261202c8187611a12565b905082810360408401526120408186611a12565b91505082606083015295945050505050565b6040815260006120656040830185611a12565b9050826020830152939250505056fea2646970667358221220716452091e49c5b47de466677e0f044938b89865e189a9e9659fb9a0bf62c67864736f6c63430008130033",
  "linkReferences": {},
  "deployedLinkReferences": {}
}